:020000040800F2
:1000000000000220DD6F0008891A0008991A000814
:10001000A11A0008A91A0008B11A0008000000007F
:10002000000000000000000000000000B91A0008F5
:10003000C91A000800000000D91A0008E91A0008CF
:100040002D7000082D7000082D7000082D7000081C
:100050002D7000082D7000082D7000082D7000080C
:100060002D7000082D7000082D7000082D700008FC
:100070002D7000082D7000082D7000082D700008EC
:100080002D7000082D7000082D7000082D700008DC
:100090002D7000082D7000082D7000082D700008CC
:1000A0002D7000082D7000082D7000082D700008BC
:1000B0002D7000082D7000082D7000082D700008AC
:1000C0002D7000082D7000082D7000082D7000089C
:1000D0002D7000082D7000082D7000082D7000088C
:1000E0002D7000082D7000082D7000082D7000087C
:1000F0002D7000082D7000082D7000082D7000086C
:100100002D7000082D7000082D7000082D7000085B
:100110002D7000082D7000082D7000082D7000084B
:100120002D7000082D7000082D7000082D7000083B
:100130002D70000800000000000000002D70000875
:100140002D7000082D7000082D7000082D7000081B
:100150002D7000082D7000082D7000082D7000080B
:100160002D7000082D7000082D7000082D700008FB
:100170002D700008F91A00082D700008000000001A
:10018000000000002D7000080000000000000000CA
:100190002D70000800000000000000002D70000815
:1001A0000000000000000000000000002D700008AA
:1001B0002D7000082D7000082D7000082D700008AB
:0401C0002D70000896
:1001C40010B5054C237833B9044B13B10448AFF38D
:1001D40000800123237010BDCC010020000000002A
:1001E40034720008084B10B51BB108490848AFF336
:1001F40000800848036803B910BD074B002BFBD0EF
:10020400BDE81040184700BF00000000D0010020E6
:1002140034720008CC0100200000000080B584B0D6
:1002240000AF78600B46FB700023FB737B681B7C7C
:10023400002B0ED14FF4007302228121786801F063
:1002440005FE4FF4007302220121786801F0FEFDDF
:100254000BE0402302228121786801F0F7FD40235E
:1002640002220121786801F0F1FD08230322822192
:10027400786801F0EBFD4FF4077006F0FDFE0346CD
:100284001A467B68C3F818227B68D3F81832002B0F
:1002940002D10123FB7326E07B68D3F81832BB60DC
:1002A4007B68D3F81C321B689847BB680022C3F8EC
:1002B4001422BB680022C3F818227B681B7C002B25
:1002C40009D1BB68D3F804224FF400730121786884
:1002D40001F06AFE07E0BB68D3F804224023012141
:1002E400786801F061FEFB7B18461037BD4680BD7F
:1002F40080B584B000AF78600B46FB700023FB73BD
:100304008121786801F0BCFD0121786801F0B8FD15
:100314008221786801F0B4FD7B68D3F81832002B91
:100324000ED07B68D3F81C325B6898477B68D3F89F
:100334001832184606F0A8FE7B680022C3F818227B
:10034400FB7B18461037BD4680BD00BF80B584B026
:1003540000AF786039607B68D3F81832FB603B6883
:100364001B7803F06003002B3AD0202B00D043E02D
:100374003B68DB88002B29D03B681B785BB2002BE1
:1003840011DA7B68D3F81C329B683A685078F968B4
:100394003A68D2889847F9683B68DB881A467868D7
:1003A40000F052F929E03B685A78FB6883F8002290
:1003B4003B68DB88DAB2FB6883F80122F9683B68A2
:1003C400DB881A46786800F06DF916E07B68D3F88C
:1003D4001C329B683A6850780022396898470CE0D0
:1003E4003B685B780A2B01D00B2B05E00122054901
:1003F400786800F029F900BF00BF002318461037C1
:10040400BD4680BDE801002080B485B000AF7860AF
:100414000B46FB707B68D3F81832FB607B68D3F81B
:100424001832002B05D0FB680022C3F814220023E5
:1004340000E0022318461437BD465DF8047B70477C
:1004440080B584B000AF78600B46FB707B68D3F84E
:100454001832FB60FB781946786801F0BDFD02464E
:10046400FB68C3F80C227B68D3F81832002B0DD03C
:100474007B68D3F81C32DB68FA68D2F80402FA68A5
:1004840002F5037211469847002300E00223184640
:100494001037BD4680BD00BF80B584B000AF786022
:1004A4007B68D3F81832FB607B68D3F81C32002BCE
:1004B40015D0FB6893F80032FF2B10D07B68D3F87B
:1004C4001C329B68FA6892F80002F968FA6892F89C
:1004D400012292B29847FB68FF2283F8002200238E
:1004E40018461037BD4680BD80B483B000AF786035
:1004F4007B6843221A80034B18460C37BD465DF8CF
:10050400047B70478800002080B483B000AF78601B
:100514007B6843221A80034B18460C37BD465DF8AE
:10052400047B70474400002080B483B000AF78603F
:100534007B6843221A80034B18460C37BD465DF88E
:10054400047B7047CC00002080B483B000AF786097
:100554007B680A221A80034B18460C37BD465DF8A7
:10056400047B70470000002080B485B000AF786041
:1005740039600223FB733B68002B05D07B683A6823
:10058400C3F81C220023FB73FB7B18461437BD46BB
:100594005DF8047B704700BF80B487B000AFF8609B
:1005A400B9601346FB80FB68D3F818327B617B6922
:1005B400BA68C3F80822FA887B69C3F810220023BA
:1005C40018461C37BD465DF8047B704780B485B07F
:1005D40000AF786039607B68D3F81832FB60FB6841
:1005E4003A68C3F80422002318461437BD465DF860
:1005F400047B704780B584B000AF78607B68D3F823
:100604001832FB607B68D3F81832002B17D07B6854
:100614001B7C002B09D1FB68D3F804224FF4007330
:100624000121786801F0C0FC07E0FB68D3F80422DC
:1006340040230121786801F0B7FC002300E0022385
:1006440018461037BD4680BD80B584B000AFF86051
:10065400B9601346FB80FB680222C3F8F421FA88D0
:10066400FB689A61FA88FB68DA61FB88BA68002142
:10067400F86801F081FC002318461037BD4680BDA0
:1006840080B584B000AFF860B9601346FB80FB8886
:10069400BA680021F86801F06FFC0023184610378F
:1006A400BD4680BD80B584B000AFF860B960134624
:1006B400FB80FB680322C3F8F421FA88FB68C3F8C3
:1006C4000821FA88FB68C3F80C21FB88BA6800216A
:1006D400F86801F069FC002318461037BD4680BD58
:1006E40080B584B000AFF860B9601346FB80FB8826
:1006F400BA680021F86801F057FC00231846103747
:10070400BD4680BD80B582B000AF78607B680422AE
:10071400C3F8F421002300220021786801F02CFCA6
:10072400002318460837BD4680BD00BF80B582B09F
:1007340000AF78607B680522C3F8F421002300220F
:100744000021786801F030FC002318460837BD46C4
:1007540080BD00BF80B584B000AFF860B9601346B7
:10076400FB71FB68002B01D102231AE0FB68D3F86C
:100774001432002B03D0FB680022C3F81422BB6898
:10078400002B03D0FB68BA68C3F81022FB6801226F
:1007940083F8FC21FB68FA791A70F86801F0F0FA22
:1007A400002318461037BD4680BD00BF80B485B015
:1007B40000AF786039600023FB733B68002B06D0E0
:1007C4007B683A68C3F814220023FB7301E0022318
:1007D400FB73FB7B18461437BD465DF8047B7047FA
:1007E40080B582B000AF7860786801F01FFB002309
:1007F40018460837BD4680BD80B483B000AF78602A
:10080400002318460C37BD465DF8047B704700BFD3
:1008140080B584B000AF78600B46FB700223FB7395
:100824007B68D3F81432002B0CD07B68D3F81432D5
:100834001B68FA781146786898470346002B01D163
:100844000023FB73FB7B18461037BD4680BD00BFF9
:1008540080B582B000AF78600B46FB707B68D3F83C
:1008640014325B68FA781146786898470023184672
:100874000837BD4680BD00BF80B582B000AF786048
:1008840039607B6803F502733968184600F0BEFDD1
:100894007B680122C3F8F4217B68B3F80E321A4650
:1008A4007B68C3F8F8217B6893F8083203F01F03D0
:1008B400012B0BD0022B11D0002B17D17B6803F531
:1008C40002731946786800F0CFF91AE07B6803F5E3
:1008D40002731946786800F017FA12E07B6803F592
:1008E40002731946786800F043FA0AE07B6893F8CB
:1008F400083223F07F03DBB21946786801F0D4FA9A
:1009040000BF002318460837BD4680BD80B586B0B9
:1009140000AFF8600B467A60FB72FB7A002B38D18B
:10092400FB6803F582737B61FB68D3F8F431032B16
:1009340042D17B699A687B69DB689A4214D97B69E6
:100944009A687B69DB68D21A7B699A607B69DA688A
:100954007B699B68934228BF13469BB21A46796809
:10096400F868FFF7BDFE27E0FB68D3F814321B6973
:10097400002B0AD0FB6893F8FC31032B05D1FB68EC
:10098400D3F814321B69F8689847F868FFF7BAFE81
:1009940012E0FB68D3F814329B69002B0CD0FB687F
:1009A40093F8FC31032B07D1FB68D3F814329B690D
:1009B400FA7A1146F8689847002318461837BD4656
:1009C40080BD00BF80B586B000AFF8600B467A608A
:1009D400FB72FB7A002B6CD1FB6814337B61FB68E0
:1009E400D3F8F431022B57D17B699A687B69DB68B1
:1009F4009A4215D97B699A687B69DB68D21A7B694C
:100A04009A607B699B689BB21A467968F868FFF71D
:100A140037FE002300220021F86801F0C5FA3BE00C
:100A24007B695B687A69D268B3FBF2F102FB01F27D
:100A34009B1A002B1CD17B695A687B69DB689A423C
:100A440016D37B695A68FB68D3F8F8319A420FD2FF
:100A540000220021F868FFF713FEFB680022C3F8A8
:100A6400F821002300220021F86801F09DFA13E028
:100A7400FB68D3F81432DB68002B0AD0FB6893F8C8
:100A8400FC31032B05D1FB68D3F81432DB68F8681A
:100A94009847F868FFF74AFEFB6893F80032012B89
:100AA4001AD1F868FFF7A8FEFB68002283F8002239
:100AB40012E0FB68D3F814325B69002B0CD0FB689E
:100AC40093F8FC31032B07D1FB68D3F814325B692C
:100AD400FA7A1146F8689847002318461837BD4635
:100AE40080BD00BF80B582B000AF78604023002293
:100AF4000021786801F0AAF97B684022C3F810212C
:100B0400402300228021786801F0A0F97B6840220C
:100B14001A627B68012283F8FC217B68D3F81832BF
:100B2400002B09D07B68D3F814325B687A6852686A
:100B3400D2B2114678689847002318460837BD4654
:100B440080BD00BF80B483B000AF78600B46FB70FB
:100B54007B68FA781A74002318460C37BD465DF892
:100B6400047B704780B483B000AF78607B6893F8EF
:100B7400FC217B6883F8FD217B68042283F8FC2137
:100B8400002318460C37BD465DF8047B704700BF50
:100B940080B483B000AF78607B6893F8FD217B68F4
:100BA40083F8FC21002318460C37BD465DF8047B0E
:100BB400704700BF80B582B000AF78607B6893F85F
:100BC400FC31032B0BD17B68D3F81432DB69002B87
:100BD40005D07B68D3F81432DB6978689847002322
:100BE40018460837BD4680BD80B483B000AF786036
:100BF4000B46FB70002318460C37BD465DF8047B9A
:100C0400704700BF80B483B000AF78600B46FB70C0
:100C1400002318460C37BD465DF8047B704700BFBF
:100C240080B483B000AF7860002318460C37BD460B
:100C34005DF8047B704700BF80B582B000AF786078
:100C44007B68012283F8FC217B68D3F814325B684B
:100C54007A685268D2B211467868984700231846D9
:100C64000837BD4680BD00BF80B584B000AF786052
:100C740039600023FB733B685B78092B39D801A2E8
:100C840052F823F0D90C0008ED0C0008F70C00080A
:100C9400E30C0008F70C0008BB0C0008B10C0008BA
:100CA400F70C0008CF0C0008C50C000839687868F8
:100CB40000F036F922E03968786800F041FA1DE066
:100CC4003968786800F07AFA18E03968786800F0D2
:100CD400FDFA13E03968786800F02AFB0EE0396801
:100CE400786800F04FFB09E03968786800F066FB2B
:100CF40004E03968786800F0C7FB00BFFB7B184646
:100D04001037BD4680BD00BF80B584B000AF7860A9
:100D140039600023FB737B6893F8FC31032B1BD1F0
:100D24003B689B88DBB2012B11D87B68D3F8143263
:100D34009B683968786898473B68DB88002B10D13A
:100D4400FB7B002B0DD17868FFF7DCFC09E03968E8
:100D5400786800F099FB04E03968786800F094FB47
:100D640000E000BF002318461037BD4680BD00BF19
:100D740080B584B000AF786039600023FB733B68B2
:100D84009B88BB733B681B7803F06003202B08D15E
:100D94007B68D3F814329B683968786898470023D5
:100DA400BAE03B685B78012B39D0032B02D0002BCF
:100DB4006BD0B0E07B6893F8FC31022B02D0032B9C
:100DC4000CD025E0BB7B002B27D0BB7B802B24D011
:100DD400BB7B1946786801F067F81EE03B685B88C6
:100DE400002B0AD1BB7B002B07D0BB7B802B04D00C
:100DF400BB7B1946786801F057F87B68D3F8143246
:100E04009B683968786898477868FFF77BFC05E049
:100E14003968786800F038FB00E000BF7BE07B684D
:100E240093F8FC31022B02D0032B0CD024E0BB7BC3
:100E3400002B26D0BB7B802B23D0BB7B1946786844
:100E440001F032F81DE03B685B88002B1BD1BB7BB3
:100E540003F07F03002B0BD0BB7B1946786801F0AD
:100E640037F87B68D3F814329B68396878689847F8
:100E74007868FFF747FC06E03968786800F004FBFF
:100E840002E000BF47E000BF45E07B6893F8FC3117
:100E9400022B02D0032B0BD036E0BB7B03F07F0385
:100EA400002B36D0BB7B1946786800F0FDFF30E09C
:100EB40097F90E30002B08DABB7B03F07F03013374
:100EC4001B017A681344043307E0BB7B03F07F0300
:100ED40010331B017A6813440433BB60BB7B19468F
:100EE400786801F009F80346002B03D0BB6801229F
:100EF4001A6002E0BB6800221A60BB68022219462D
:100F04007868FFF7A1FB05E03968786800F0BCFA5F
:100F140000E000BF00BFFB7B18461037BD4680BD14
:100F240080B584B000AF786039603B685B881B0A89
:100F34009BB2013B0E2B00F2E58001A252F823F094
:100F4400990F0008B10F0008F10F000809110008FB
:100F540009110008B5100008DB1000080911000889
:100F640009110008091100080911000809110008F5
:100F74000911000809110008810F00087B68D3F8E3
:100F84001032DB697A68127C07F10A01104698472F
:100F9400F860BCE07B68D3F810321B687A68127C76
:100FA40007F10A0110469847F860B0E07B681B7CA3
:100FB400002B0DD17B68D3F814329B6A07F10A0227
:100FC40010469847F860FB68013302221A709EE0CD
:100FD4007B68D3F81432DB6A07F10A02104698479B
:100FE400F860FB68013302221A7090E03B685B886A
:100FF400DBB2052B56D801A252F823F019100008D1
:101004003110000849100008611000087910000828
:10101400911000087B68D3F810325B687A68127C00
:1010240007F10A0110469847F86040E07B68D3F85E
:1010340010329B687A68127C07F10A0110469847BF
:10104400F86034E07B68D3F81032DB687A68127C8D
:1010540007F10A0110469847F86028E07B68D3F846
:1010640010321B697A68127C07F10A01104698470E
:10107400F8601CE07B68D3F810325B697A68127CF4
:1010840007F10A0110469847F86010E07B68D3F82E
:1010940010329B697A68127C07F10A01104698475E
:1010A400F86004E03968786800F0EEF944E02EE076
:1010B4007B681B7C002B09D17B68D3F814325B6BF3
:1010C40007F10A0210469847F86020E0396878680A
:1010D40000F0DAF930E07B681B7C002B0DD17B68D3
:1010E400D3F814321B6B07F10A0210469847F860D4
:1010F400FB68013307221A7009E03968786800F048
:10110400C3F919E03968786800F0BEF914E07B8906
:10111400002B11D03B68DB88002B0DD03B68DA88AC
:101124007B89934228BF13469BB27B817B891A46F5
:10113400F9687868FFF788FA1037BD4680BD00BFAC
:1011440080B584B000AF786039603B689B88002B21
:101154002CD13B68DB88002B28D13B685B88DBB251
:1011640003F07F03FB737B6893F8FC31032B04D1FA
:101174003968786800F088F91CE07B68FA7B83F8AA
:10118400FE21FB7B1946786800F0E2FE7868FFF7E1
:10119400B9FAFB7B002B04D07B68022283F8FC2184
:1011A40008E07B68012283F8FC2103E03968786851
:1011B40000F06AF900BF1037BD4680BD80B582B02B
:1011C40000AF786039603B685B88DAB23E4B1A70D6
:1011D4003D4B1B78012B04D93968786800F054F929
:1011E4006FE07B6893F8FC31022B02D0032B23D0F1
:1011F40062E0354B1B78002B1AD0334B1B781A4610
:101204007B685A607B68032283F8FC212E4B1B7891
:1012140019467868FFF7FCFA0346022B04D13968B3
:10122400786800F031F94CE07868FFF76BFA48E031
:101234007868FFF767FA44E0234B1B78002B12D140
:101244007B68022283F8FC211F4B1B781A467B68BB
:101254005A601D4B1B7819467868FFF7F9FA7868CD
:10126400FFF750FA2DE0184B1B781A467B685B6831
:101274009A421DD07B685B68DBB219467868FFF739
:10128400E7FA114B1B781A467B685A600E4B1B78A1
:1012940019467868FFF7BCFA0346022B04D1396873
:1012A400786800F0F1F80CE07868FFF72BFA08E0B2
:1012B4007868FFF727FA04E03968786800F0E4F802
:1012C40000BF0837BD4680BDE901002080B582B06B
:1012D40000AF786039603B68DB88012B04D0396843
:1012E400786800F0D1F81FE07B6893F8FC31022B9A
:1012F40002D0032B0BD012E07B6800229A607B683B
:101304000833012219467868FFF79EF90CE07B68E0
:101314000433012219467868FFF796F904E0396826
:10132400786800F0B1F800BF00BF0837BD4680BD43
:1013340080B582B000AF786039607B6893F8FC3187
:10134400023B012B15D87B680122DA607B68D3F855
:101354000432002B05D07B68DB6843F002027B6813
:10136400DA607B680C33022219467868FFF76CF95F
:1013740004E03968786800F087F800BF00BF0837D8
:10138400BD4680BD80B582B000AF786039603B68EF
:101394005B88012B0DD17B680122C3F804227B6892
:1013A400D3F814329B683968786898477868FFF7EF
:1013B400A9F900BF0837BD4680BD00BF80B582B023
:1013C40000AF786039607B6893F8FC31023B012BF5
:1013D40012D83B685B88012B13D17B680022C3F8C9
:1013E40004227B68D3F814329B683968786898477C
:1013F4007868FFF787F904E03968786800F044F802
:1014040000E000BF00BF0837BD4680BD80B483B094
:1014140000AF786039603B681A787B681A703B6863
:101424005A787B685A703B6802331B789AB23B68DF
:1014340003331B789BB21B029BB213449AB27B68A2
:101444005A803B6804331B789AB23B6805331B7897
:101454009BB21B029BB213449AB27B689A803B688E
:1014640006331B789AB23B6807331B789BB21B0286
:101474009BB213449AB27B68DA8000BF0C37BD4636
:101484005DF8047B704700BF80B582B000AF786020
:1014940039608021786800F007FD0021786800F049
:1014A40003FD00BF0837BD4680BD00BF80B586B0D0
:1014B40000AFF860B9607A600023FB75FB68002B0D
:1014C40033D0F86800F036F8034601339BB25B0072
:1014D4009AB27B681A80FB7D5A1CFA751A46BB685F
:1014E40013447A681288D2B21A70FB7D5A1CFA75BA
:1014F4001A46BB68134403221A7012E0FB7D5A1C7F
:10150400FA751A46BB681A44FB68591CF9601B78C3
:101514001370FB7D5A1CFA751A46BB6813440022EB
:101524001A70FB681B78002BE8D100BF1837BD4642
:1015340080BD00BF80B485B000AF78600023FB732A
:1015440005E0FB7B0133FB737B6801337B607B68C5
:101554001B78002BF5D1FB7B18461437BD465DF88C
:10156400047B704780B483B000AF03463960FB71DD
:101574003B6812221A80034B18460C37BD465DF8AF
:10158400047B70473001002080B483B000AF034671
:101594003960FB713B6804221A80034B18460C37F0
:1015A400BD465DF8047B70475001002080B582B0D1
:1015B40000AF03463960FB71FB79002B05D13A6813
:1015C40007490848FFF772FF04E03A6804490548F0
:1015D400FFF76CFF024B18460837BD4680BD00BFBD
:1015E400F80100204C72000880B582B000AF0346B9
:1015F4003960FB713A6804490448FFF757FF024B0E
:1016040018460837BD4680BDF80100206472000802
:1016140080B582B000AF03463960FB71FB79002BC3
:1016240005D13A6807490848FFF740FF04E03A68E3
:1016340004490548FFF73AFF024B18460837BD46F0
:1016440080BD00BFF80100207872000880B582B028
:1016540000AF03463960FB71FB79002B05D13A6872
:1016640007490848FFF722FF04E03A68044905489F
:10167400FFF71CFF024B18460837BD4680BD00BF6C
:10168400F80100208872000880B582B000AF0346DC
:101694003960FB71FB79002B05D13A68074908488A
:1016A400FFF704FF04E03A6804490548FFF7FEFE2B
:1016B400024B18460837BD4680BD00BFF801002024
:1016C4009472000880B483B000AF03463960FB71A4
:1016D4003B680C221A80034B18460C37BD465DF854
:1016E400047B70474401002080B500AF0022054907
:1016F4000548FEF751FF05490348FEF767FF00233D
:10170400184680BDFC030020E0080020F8030020F8
:1017140080B400AF00231846BD465DF8047B7047D3
:1017240080B483B000AF03463960FB711346BB80BD
:10173400FB79232B4AD801A252F823F0D1170008D1
:10174400D1170008D1170008D1170008D1170008D5
:10175400D1170008D1170008D1170008D1170008C5
:10176400D1170008D1170008D1170008D1170008B5
:10177400D1170008D1170008D1170008D1170008A5
:10178400D1170008D1170008D1170008D117000895
:10179400D1170008D1170008D1170008D117000885
:1017A400D1170008D1170008D1170008D117000875
:1017B400D1170008D1170008D1170008D117000865
:1017C400D1170008D1170008D117000800BF002363
:1017D40018460C37BD465DF8047B704780B582B06F
:1017E40000AF7860396079680548FEF7EFFE044879
:1017F400FEF700FF002318460837BD4680BD00BF32
:10180400E008002080B500AF114B124A1A60104B5B
:101814004FF4E1325A600E4B00229A600C4B0022C6
:10182400DA600B4B00221A61094B0C225A61084BF7
:1018340000229A61064B0022DA61054801F068FE35
:101844000346002B01D000F07DFD00BF80BD00BF2A
:1018540040040020004C004080B500AF114B124AF8
:101864001A60104B4FF4E1325A600E4B00229A601A
:101874000C4B0022DA600B4B00221A61094B0C223C
:101884005A61084B00229A61064B0022DA6105482E
:1018940001F03EFE0346002B01D000F053FD00BFD3
:1018A40080BD00BF000400200048004080B58AB01D
:1018B40000AF78607B681B68244A93421ED10023E2
:1018C4003B61234A224B1B6C43F400231364204BDB
:1018D4001B6C03F400233B613B6903237B610223FC
:1018E400BB610123FB6103233B6208237B6207F195
:1018F40014031946174803F03FFB23E07B681B6879
:10190400154A93421ED10023FB60114A104B1B6CF5
:1019140043F4802313640E4B1B6C03F48023FB609D
:10192400FB684FF440637B610223BB610123FB61CD
:1019340003233B6207237B6207F11403194607481C
:1019440003F01AFB00BF2837BD4680BD004C0040A1
:1019540000380240000002400048004000080240F5
:1019640080B500AF032004F0AFFF002200216FF028
:101974000B0004F0B5FF002200216FF00A0004F010
:10198400AFFF002200216FF0090004F0A9FF00223C
:1019940000216FF0040004F0A3FF002200216FF087
:1019A400030004F09DFF002200216FF0010004F009
:1019B40097FF002200214FF0FF3004F091FF00BF99
:1019C40080BD00BF80B500AF124B134A1A60114BA3
:1019D400124A5A600F4B00229A600E4B0022DA60C2
:1019E4000C4B4FF480421A610A4B00225A61094B96
:1019F40000229A61074B0022DA61064B00221A6228
:101A0400044801F0EFFF0346002B01D000F09AFCDC
:101A140000BF80BD8004002000540040A086010067
:101A240080B588B000AF78607B681B68124A934227
:101A34001DD1C023FB6012233B6101237B6103237F
:101A4400BB610423FB6107F10C0319460B4803F047
:101A540093FA0023BB600A4A094B1B6C43F400133E
:101A64001364074B1B6C03F40013BB60BB6800BF1B
:101A74002037BD4680BD00BF005400400004024032
:101A84000038024080B400AF00BFBD465DF8047B5F
:101A9400704700BF80B400AFFEE700BF80B400AF62
:101AA400FEE700BF80B400AFFEE700BF80B400AF24
:101AB400FEE700BF80B400AF00BFBD465DF8047B05
:101AC400704700BF80B400AF00BFBD465DF8047B23
:101AD400704700BF80B400AF00BFBD465DF8047B13
:101AE400704700BF80B500AF04F092FC04F04AFFD9
:101AF40000BF80BD80B500AF024800F073FD00BF99
:101B040080BD00BFD404002080B588B000AF7860E9
:101B14007B681B681D4A934233D14FF40053FB602A
:101B240000233B6100237B6107F10C03194618482D
:101B340003F022FA4FF44043FB6002233B6100238D
:101B44007B610323BB610C23FB6107F10C03194682
:101B54000F4803F011FA0023BB600E4A0D4B1B6BB8
:101B640043F0005313630B4B1B6B03F00053BB6038
:101B7400BB68002200214D2004F0B2FE4D2004F089
:101B8400CBFE00BF2037BD4680BD00BF000004402F
:101B9400000402400038024080B582B000AF786093
:101BA4007B68D3F8C0237B6803F56173194610463C
:101BB400FEF762FE00BF0837BD4680BD80B582B027
:101BC40000AF78600B46FB707B68D3F8C003FA78EB
:101BD40079681346DB009B1A9B000B4403F5F473EE
:101BE4001A68FB781946FEF791FE00BF0837BD4618
:101BF40080BD00BF80B582B000AF78600B46FB703B
:101C04007B68D3F8C003FA7879681346DB009B1A23
:101C14009B000B4444331A68FB781946FEF7D2FE46
:101C240000BF0837BD4680BD80B582B000AF786084
:101C34007B68D3F8C0331846FEF7BCFF00BF0837F3
:101C4400BD4680BD80B584B000AF78600123FB73CE
:101C54007B68DB68002B02D0022B03D005E0002355
:101C6400FB7305E00123FB7302E00123FB7300BF58
:101C74007B68D3F8C033FA7B11461846FEF762FF3F
:101C84007B68D3F8C0331846FEF72CFF00BF10372B
:101C9400BD4680BD80B582B000AF78607B68D3F864
:101CA400C0331846FEF75EFF7B681B6803F560636C
:101CB4001A467B681B6803F560631B6843F00103E5
:101CC40013607B681B6A002B05D0054A044B1B6913
:101CD40043F00603136100BF0837BD4680BD00BF53
:101CE40000ED00E080B582B000AF78607B68D3F887
:101CF400C0331846FEF74CFF00BF0837BD4680BD11
:101D040080B582B000AF78600B46FB707B68D3F877
:101D1400C033FA7811461846FEF774FF00BF08373F
:101D2400BD4680BD80B582B000AF78600B46FB70C5
:101D34007B68D3F8C033FA7811461846FEF754FF8F
:101D440000BF0837BD4680BD80B582B000AF786063
:101D54007B68D3F8C0331846FEF762FF00BF08372C
:101D6400BD4680BD80B582B000AF78607B68D3F893
:101D7400C0331846FEF760FF00BF0837BD4680BD7C
:101D840080B582B000AF78607B681B78012B43D1AB
:101D9400244A7B68C2F8C0337B68224AC3F82022F5
:101DA400204B214A1A601F4B08225A601D4B022205
:101DB400DA601C4B00221A611A4B00225A61194B3B
:101DC40002229A61174B0022DA61164B00221A6232
:101DD400144B00225A62134B0022DA62114B002288
:101DE4001A63104B00225A630E4800F0CBFA0346E4
:101DF400002B01D000F0A6FA4FF40071094805F059
:101E04007FF880220021074805F02EF84FF4BA72BB
:101E14000121044805F028F8002318460837BD4678
:101E240080BD00BFD40400200000044080B582B00F
:101E340000AF78607B68D3F82032184600F0B0FB1E
:101E4400002318460837BD4680BD00BF80B582B068
:101E540000AF7860084611461A460346FB700B46ED
:101E6400BB7013463B807B68D3F82002BB783A886A
:101E7400F97801F0A1F8002318460837BD4680BD63
:101E840080B582B000AF78600B46FB707B68D3F8F6
:101E94002032FA781146184601F0F8F80023184663
:101EA4000837BD4680BD00BF80B582B000AF786002
:101EB4000B46FB707B68D3F82032FA78114618463B
:101EC40001F0FCF9002318460837BD4680BD00BF69
:101ED40080B582B000AF78600B46FB707B68D3F8A6
:101EE4002032FA781146184601F044FA00231846C5
:101EF4000837BD4680BD00BF80B485B000AF7860B0
:101F04000B46FB707B68D3F82032FB6097F90330F3
:101F1400002B0BDAFB7803F07F02F9681346DB0031
:101F24009B1A9B000B443A331B780BE0FB7803F0BD
:101F34007F02F9681346DB009B1A9B000B4403F5F0
:101F4400EF731B7818461437BD465DF8047B704761
:101F540080B582B000AF78600B46FB707B68D3F825
:101F64002032FA781146184601F004F80023184686
:101F74000837BD4680BD00BF80B584B000AFF860AF
:101F84007A601A460B46FB7213463B81FB68D3F812
:101F940020023B89F97A7A6801F038F9002318465F
:101FA4001037BD4680BD00BF80B584B000AFF86077
:101FB4007A601A460B46FB7213463B81FB68D3F8E2
:101FC40020023B89F97A7A6801F0ACF800231846BC
:101FD4001037BD4680BD00BF80B582B000AF7860C9
:101FE4000B46FB707B68D3F82032FA78114618460A
:101FF40001F0F2F8034618460837BD4680BD00BF1D
:1020040080B582B000AF78600B46FB70FB78002B84
:1020140002D0012B20D03DE07B681B6A002B07D047
:1020240000F008F91D4A1D4B1B6923F006031361D8
:102034007B681B6803F560631A467B681B6803F5BD
:1020440060631B6823F0010313607B68D3F8C0331B
:102054001846FEF79DFD1DE07B681B6803F5606371
:102064001A467B681B6803F560631B6843F0010331
:1020740013607B68D3F8C0331846FEF773FD7B68A2
:102084001B6A002B05D0054A044B1B6943F0060369
:10209400136100BF00BF0837BD4680BD00ED00E0FE
:1020A40080B584B000AF1E4B1E4A1A601C4B002240
:1020B4005A601B4B00229A60194B00221A61184B7C
:1020C40000229A61164B00221A62154B0022DA6232
:1020D400134B0022DA60124B0122DA61104B00220A
:1020E4001A630F4B01225A610D4804F059FC034650
:1020F400002B01D000F026F904233B6001237B6010
:102104000023BB603B461946054804F08DFC03469A
:10211400002B01D000F016F900BF1037BD4680BD7A
:10212400980800200020014080B588B000AF786096
:102134007B681B68104A934219D10023BB600F4A85
:102144000E4B5B6C43F4807353640C4B5B6C03F475
:102154008073BB60BB68F023FB6003233B610023F7
:102164007B6107F10C031946054802F005FF00BF27
:102174002037BD4680BD00BF00200140003802402A
:102184000000024080B485B000AF0023FB601E4A0B
:102194001D4B1B6B43F0040313631B4B1B6B03F0BE
:1021A4000403FB60FB680023BB60174A164B1B6BE0
:1021B40043F080031363144B1B6B03F08003BB6079
:1021C400BB6800237B60104A0F4B1B6B43F0010379
:1021D40013630D4B1B6B03F001037B607B680023CF
:1021E4003B60094A084B1B6B43F002031363064B25
:1021F4001B6B03F002033B603B6800BF1437BD4612
:102204005DF8047B704700BF0038024080B500AF22
:1022140004F0C0F800F00EF8FFF7B4FFFFF7D2FBAC
:10222400FFF7F0FAFFF718FB00F090F8FFF738FF1C
:10223400FEE700BF80B5ACB000AF0023BB603E4AF0
:102244003D4B1B6C43F0805313643B4B1B6C03F0FE
:102254008053BB60BB6800237B60384A374B1B68E4
:1022640023F4404343F480431360344B1B6803F46A
:1022740040437B607B680123FB670123C7F8803000
:102284000223C7F894304FF48003C7F8983004232E
:10229400C7F89C304823C7F8A0300223C7F8A430FD
:1022A4000323C7F8A8300223C7F8AC3007F17C0336
:1022B400184603F045FD0346002B01D000F042F818
:1022C4000F23BB660223FB6600233B674FF4805356
:1022D4007B670023BB6707F168030221184604F0FB
:1022E400C7F80346002B01D000F02CF84FF480739C
:1022F400FB6000233B6607F10C03184602F0CEFF97
:102304000346002B01D000F01DF804F0C3F9024687
:102314000B4BA3FB02239B09184604F00BFB042080
:1023240004F014FB002200214FF0FF3004F0D8FA2F
:1023340000BFB037BD4680BD003802400070004089
:10234400D34D621080B400AFFEE700BF80B500AF8C
:10235400012208490848FEF7FDF908490648FEF736
:1023640025FA07490448FEF7FFF80348FEF738FA50
:1023740000BF80BD10010020E00800200C000020F8
:1023840054010020F0B58FB00AAF78600023FB60E1
:102394007B68002B01D10123FEE07B68032283F8D4
:1023A40081237868FFF7B0FB7B681B68184601F04F
:1023B40057FC7B681B683B607E686D4606F1100421
:1023C4000FCC0FC50FCC0FC594E8030085E80300BC
:1023D400331D0ECB386801F0E5FB7B681B680021D8
:1023E400184601F04FFC0023FB604CE07968FA6862
:1023F4001346DB009B1A9B000B44393301221A70ED
:10240400FB68D8B27968FA681346DB009B1A9B0014
:102414000B44383302461A70FB6898B27968FA683C
:102424001346DB009B1A9B000B443E3302461A8082
:102434007968FA681346DB009B1A9B000B443B3314
:1024440000221A707968FA681346DB009B1A9B0015
:102454000B44403300221A607968FA681346DB00A3
:102464009B1A9B000B44443300221A607968FA6873
:102474001346DB009B1A9B000B444C3300221A606A
:10248400FB680133FB60FB680E2BAFD90023FB60B4
:102494005AE07968FA681346DB009B1A9B000B44E8
:1024A40003F2DD1300221A70FB68D8B27968FA6867
:1024B4001346DB009B1A9B000B4403F5EE730246A4
:1024C4001A70FB6898B27968FA681346DB009B1AA5
:1024D4009B000B443E3302461A807968FA6813461F
:1024E400DB009B1A9B000B4403F2DF1300221A70DB
:1024F4007968FA681346DB009B1A9B000B4403F5CA
:10250400F27300221A607968FA681346DB009B1A9A
:102514009B000B4403F5F47300221A607968FA688F
:102524001346DB009B1A9B000B4403F5F87300224F
:102534001A607B681A68FB6840339B0013440022CE
:102544005A60FB680133FB60FB680E2BA1D97B68E2
:102554001B683B607E686D4606F110040FCC0FC506
:102564000FCC0FC594E8030085E80300331D0ECBA0
:10257400386801F0AFFB7B68012283F881237B6814
:102584005B6A012B02D1786804F0CCFC7B681B6881
:10259400184602F08FFB002318461437BD46F0BDE1
:1025A40080B582B000AF78607B6893F88033012BEC
:1025B40001D1022312E07B68012283F880237B6827
:1025C4001B68184602F05EFB7B681B68184601F026
:1025D40035FB7B68002283F88023002318460837E4
:1025E400BD4680BD80B58CB000AF78607B681B6849
:1025F4003B620023FB620023BB620023FB610023D8
:102604007B620023BB6100237B61824B3B617B685F
:102614001B68184602F0F2FB0346002B40F0A78427
:102624007B681B68184602F05DFB0346002B00F034
:102634009D847B681B68184602F054FB034603F034
:102644000203002B07D07B681B687A681268526902
:1026540002F002025A617B681B68184602F042FBD2
:10266400034603F40023002B00F0C08000237B62A8
:102674007B681B68184602F04BFBB862B2E0BB6A89
:1026840003F00103002B00F0A7807B681B687A6AC3
:10269400D2B21146184602F06BFBF861FB6903F0F5
:1026A4000103002B6BD07B6A5A013B6A134403F588
:1026B40030631A46012393607B681B69012B3CD16C
:1026C40079687A6A1346DB009B1A9B000B4403F576
:1026D400F2731A687B6A59013B6A0B4403F5306351
:1026E4001B69C3F31203D11A78687A6A1346DB00B4
:1026F4009B1A9B00034403F5FA73196079687A6A9C
:102704001346DB009B1A9B000B4403F5F473196812
:1027140078687A6A1346DB009B1A9B00034403F52E
:10272400F2731B68194478687A6A1346DB009B1AB3
:102734009B00034403F5F47319607B6ADBB219460A
:102744007868FFF73BFA7B681B69012B17D17B6A1A
:10275400002B14D179687A6A1346DB009B1A9B001C
:102764000B4403F5F8731B68002B08D17B681868C9
:102774007B6803F561731A46012102F083FBFB6950
:1027840003F00803002B0BD07868FFF705FA7B6A87
:102794005A013B6A134403F530631A4608239360D5
:1027A400FB6903F01003002B08D07B6A5A013B6AD3
:1027B400134403F530631A4610239360FB6903F056
:1027C4002003002B08D07B6A5A013B6A134403F5AB
:1027D40030631A46202393607B6A01337B62BB6AB1
:1027E4005B08BB62BB6A002B7FF449AF7B681B6844
:1027F400184602F077FA034603F48023002B00F016
:10280400C5807B681B68184602F09AFAB8620023F8
:102814007B62B7E00095BA0ABB6A03F00103002BA0
:1028240000F0AA807B681B687A6AD2B21146184607
:1028340002F0BAFAF861FB6903F00103002B5AD0E5
:1028440001227B6A02FA03F3BB613B6A03F500636E
:1028540019463B6A03F500635A6BBB69DB431340BB
:102864004B637B6A5A013B6A134403F510631A46AF
:10287400012393607B681B69012B1BD179687A6AF9
:102884001346DB009B1A9B000B4444331968786899
:102894007A6A1346DB009B1A9B00034440331B688F
:1028A400194478687A6A1346DB009B1A9B00034438
:1028B400443319607B6ADBB219467868FFF79AF9EA
:1028C4007B681B69012B16D17B6A002B13D17968B5
:1028D4007A6A1346DB009B1A9B000B444C331B683B
:1028E400002B08D17B6818687B6803F561731A466E
:1028F400012102F0C7FAFB6903F00803002B08D09A
:102904007B6A5A013B6A134403F510631A46082391
:102914009360FB6903F01003002B08D07B6A5A0113
:102924003B6A134403F510631A4610239360FB6952
:1029340003F04003002B08D07B6A5A013B6A13441E
:1029440003F510631A4640239360FB6903F0020306
:10295400002B08D07B6A5A013B6A134403F51063C9
:102964001A4602239360FB6903F08003002B03D013
:10297400796A786800F04AFD7B6A01337B62BB6A3E
:102984005B08BB62BB6A002B7FF446AF7B681B68A5
:10299400184602F0A7F90346002B23DA3B6A03F535
:1029A40000631A463B6A03F500635B6823F0010386
:1029B40053607B6893F8B433012B08D17B68002201
:1029C40083F8B42300217868FFF71AFB02E07868E3
:1029D400FFF788F97B681B687A681268526902F00D
:1029E40000425A617B681B68184602F07BF9034673
:1029F40003F40063002B12D03B6A03F500639B6869
:102A040003F00103002B02D07868FFF743F97B68D9
:102A14001B687A681268526902F400625A617B6822
:102A24001B68184602F05EF9034603F00063002BAE
:102A340021D07B681B687A681268526902F00062D0
:102A44005A617B6893F8B433002B11D17B6801225F
:102A540083F8B4237B681B685B6D03F03C039A081E
:102A64007B68C3F8B82301217868FFF7C9FA02E04C
:102A74007868FFF70FF97B681B68184602F032F993
:102A8400034603F48053002B00F091803B6A03F566
:102A940000631A463B6A03F500635B6823F0010395
:102AA40053607B681B680021184601F04BFA002331
:102AB400FB6214E0FB6A5A013B6A134403F510639A
:102AC4001A46FF239360FB6A5A013B6A134403F5D9
:102AD40030631A46FF239360FB6A0133FB627B6811
:102AE4005A68FB6A9A42E5D83B6A03F500631A46C2
:102AF4004FF0FF3393613B6A03F500631A463B6A68
:102B040003F50063DB6943F00113D3617B681B6B3E
:102B1400002B18D03B6A03F500631A463B6A03F5A1
:102B24000063D3F8843043F00B03C2F884303B6A6B
:102B340003F500631A463B6A03F500635B6C43F0DC
:102B44000B03536415E03B6A03F500631A463B6AC2
:102B540003F500635B6943F02B0353613B6A03F5A0
:102B640000631A463B6A03F500631B6943F00B03D9
:102B740013613B6A03F500631A463B6A03F500637D
:102B84001B6823F4FE6313607B6818687B681B6909
:102B9400D9B27B6803F561731A4602F073F97B6856
:102BA4001B687A681268526902F480525A617B6821
:102BB4001B68184602F096F8034603F40053002BF2
:102BC40000F0DA807B681B68184602F025F97B6800
:102BD4001B687A681268D26822F47052DA607B68E3
:102BE4001B68184601F00EFA0346002B0FD17B68D0
:102BF4000022DA607B684FF400725A617B681B68BC
:102C04007A681268D26842F41052DA60A9E07B68EC
:102C14000322DA607B6840225A6103F03BFD38618D
:102C24003B697C4A93420CD93B697B4A934208D85E
:102C34007B681B687A681268D26842F47052DA6062
:102C44008FE03B69744A93420CD93B69734A9342BF
:102C540008D87B681B687A681268D26842F46052AC
:102C6400DA607EE03B696D4A93420CD93B696C4A59
:102C7400934208D87B681B687A681268D26842F469
:102C84005052DA606DE03B69654A93420CD93B6966
:102C9400644A934208D87B681B687A681268D268D1
:102CA40042F44052DA605CE03B695E4A93420CD9DC
:102CB4003B695D4A934208D87B681B687A6812684E
:102CC400D26842F43052DA604BE03B69564A934290
:102CD4000CD93B69554A934208D87B681B687A68CB
:102CE4001268D26842F42052DA603AE03B694F4AF3
:102CF40093420CD93B694E4A934208D87B681B68BF
:102D04007A681268D26842F41052DA6029E03B69AA
:102D1400474A93420CD93B69464A934208D87B6898
:102D24001B687A681268D26842F40052DA6018E0CC
:102D34003B69404A93420CD93B693F4A934208D8C5
:102D44007B681B687A681268D26842F4E052DA60E1
:102D540007E07B681B687A681268D26842F4C05244
:102D6400DA607868FEF76EFF7B681B687A68126821
:102D7400526902F400525A617B681B68184601F0DC
:102D8400B1FF034603F01003002B76D07B681B6869
:102D94007A681268926922F010029A613B6A1B6A8F
:102DA4007B617B6903F00F021346DB009B1A9B00D7
:102DB40003F5EC737A6813440433FB607B695B0CA2
:102DC40003F00F03022B39D17A6947F6F0731340ED
:102DD400002B4AD0FB68D9687B691B099BB2C3F3FB
:102DE4000A039BB21A46386A01F01EFEFB68DA68D1
:102DF4007B691B09C3F30A031A44FB68DA60FB68A6
:102E04009A697B691B09C3F30A031A44FB689A6134
:102E14002BE000BFBFACD800BFE1E400FF23F40007
:102E24007F7306019F491A01FF2C31013FA44C0115
:102E3400FF356E011FABA601FF47E8017B695B0C00
:102E440003F00F03062B10D17B6803F5617308228E
:102E54001946386A01F0E8FDFB689A697B691B0929
:102E6400C3F30A031A44FB689A617B681B687A6897
:102E74001268926942F010029A617B681B681846D6
:102E840001F030FF034603F00803002B0AD07868F2
:102E9400FEF7CAFE7B681B687A681268526902F002
:102EA40008025A617B681B68184601F01BFF034641
:102EB40003F48013002B0DD07B6ADBB219467868CB
:102EC400FEF730FF7B681B687A681268526902F467
:102ED40080125A617B681B68184601F003FF0346A1
:102EE40003F40013002B0DD07B6ADBB2194678681B
:102EF400FEF706FF7B681B687A681268526902F461
:102F040000125A617B681B68184601F0EBFE034609
:102F140003F08043002B0AD07868FEF715FF7B6826
:102F24001B687A681268526902F080425A617B68B1
:102F34001B68184601F0D6FE034603F00403002B79
:102F440015D07B681B685B687B617B6903F00403B5
:102F5400002B02D07868FEF705FF7B681B687A684F
:102F6400126851687A690A435A6000E000BF30373A
:102F7400BD4680BD80B582B000AF78600B46FB7063
:102F84007B6893F88033012B01D102230FE07B6827
:102F9400012283F880237B681B68FA78114618465F
:102FA40001F04AFE7B68002283F880230023184640
:102FB4000837BD4680BD00BF80B584B000AF7860DF
:102FC400084611461A460346FB700B463B801346DF
:102FD400BB700023FB7297F90330002B0BDAFB78EC
:102FE40003F07F021346DB009B1A9B0038337A6898
:102FF4001344FB600CE0FB7803F07F021346DB0014
:103004009B1A9B0003F5EC737A6813440433FB604A
:10301400FB7803F07F03DAB2FB681A7097F9033088
:10302400DBB2DB09DBB21A46FB685A703A88FB68EC
:103034009A60FB68BA78DA70FB685B78002B04D07E
:10304400FB681B789AB2FB68DA80BB78022B02D14A
:10305400FB6800221A717B6893F88033012B01D13D
:1030640002230EE07B68012283F880237B681B68BF
:10307400F968184600F0FCFF7B68002283F880237F
:10308400FB7A18461037BD4680BD00BF80B584B0BA
:1030940000AF78600B46FB7097F90330002B0BDA16
:1030A400FB7803F07F021346DB009B1A9B00383346
:1030B4007A681344FB600CE0FB7803F07F0213464C
:1030C400DB009B1A9B0003F5EC737A68134404330A
:1030D400FB60FB7803F07F03DAB2FB681A7097F9A0
:1030E4000330DBB2DB09DBB21A46FB685A707B683B
:1030F40093F88033012B01D102230EE07B68012277
:1031040083F880237B681B68F968184601F03AF855
:103114007B68002283F88023002318461037BD46BD
:1031240080BD00BF80B586B000AFF8607A603B60B8
:103134000B46FB72FB7A03F07F021346DB009B1AFB
:103144009B0003F5EC73FA68134404337B617B69D9
:103154007A68DA607B693A685A617B6900229A610D
:103164007B6900225A70FB7A03F07F03DAB27B6931
:103174001A70FB681B69012B02D17A687B691A619A
:10318400FB6893F88033012B01D1022320E0FB6814
:10319400012283F88023FB7A03F07F03002B09D1FB
:1031A400FB681868FB681B69DBB21A46796901F091
:1031B400A7FA08E0FB681868FB681B69DBB21A46CB
:1031C400796901F05BF8FB68002283F8802300230F
:1031D40018461837BD4680BD80B483B000AF786010
:1031E4000B46FB70FB7803F07F0279681346DB0023
:1031F4009B1A9B000B4403F5FA731B689BB2184699
:103204000C37BD465DF8047B704700BF80B586B0BF
:1032140000AFF8607A603B600B46FB72FB7A03F008
:103224007F021346DB009B1A9B003833FA68134471
:103234007B617B697A68DA607B693A685A617B6989
:1032440000229A617B6901225A70FB7A03F07F03A2
:10325400DAB27B691A70FB681B69012B02D17A68A8
:103264007B691A61FB6893F88033012B01D1022337
:1032740020E0FB68012283F88023FB7A03F07F03BC
:10328400002B09D1FB681868FB681B69DBB21A467E
:10329400796901F035FA08E0FB681868FB681B6976
:1032A400DBB21A46796900F0E9FFFB68002283F873
:1032B4008023002318461837BD4680BD80B584B0EE
:1032C40000AF78600B46FB7097F90330002B0BDAE4
:1032D400FB7803F07F021346DB009B1A9B00383314
:1032E4007A681344FB600AE0FA781346DB009B1A01
:1032F4009B0003F5EC737A6813440433FB60FB68AA
:1033040001229A70FB7803F07F03DAB2FB681A702B
:1033140097F90330DBB2DB09DBB21A46FB685A705B
:103324007B6893F88033012B01D102231EE07B6874
:10333400012283F880237B681B68F968184601F032
:103344009BFBFB7803F07F03002B0AD17B68186892
:103354007B681B69D9B27B6803F561731A4601F077
:1033640091FD7B68002283F88023002318461037E0
:10337400BD4680BD80B584B000AF78600B46FB705D
:1033840097F90330002B0BDAFB7803F07F02134626
:10339400DB009B1A9B0038337A681344FB600AE015
:1033A400FA781346DB009B1A9B0003F5EC737A68EA
:1033B40013440433FB60FB6800229A70FB7803F02B
:1033C4007F03DAB2FB681A7097F90330DBB2DB09CA
:1033D400DBB21A46FB685A707B6893F88033012B82
:1033E40001D102230EE07B68012283F880237B68ED
:1033F4001B68F968184601F0B1FB7B68002283F86A
:103404008023002318461037BD4680BD80B58AB09E
:1034140002AF786039607B681B687B610023FB61C5
:1034240000233B613A681346DB009B1A9B00383348
:103434007A681344FB60FB685A69FB689B69D31A7A
:10344400FB61FB689A68FB699A4202D2FB689B683D
:10345400FB61FB6903339B08BB612BE0FB685A6982
:10346400FB689B69D31AFB61FB689A68FB699A4203
:1034740002D2FB689B68FB61FB6903339B08BB6159
:10348400FB68D9683B68DAB2FB6998B27B681B6950
:10349400DBB200930346786901F090FAFB68DA68BE
:1034A400FB691A44FB68DA60FB689A69FB691A4491
:1034B400FB689A613B685A017B69134403F5106306
:1034C4009B699AB2BB699A4209D9FB689A69FB68FD
:1034D4005B699A4203D2FB685B69002BBED1FB692E
:1034E400002B10D101223B6802FA03F33B617B6994
:1034F40003F5006319467B6903F500635A6B3B6966
:10350400DB4313404B63002318462037BD4680BD80
:1035140080B582B000AF78607B68002B01D10123B5
:103524003FE07B6893F83930DBB2002B06D17B682F
:10353400002283F838207868FEF7B8F97B682422E3
:1035440083F839207B681B687A681268D26822F491
:103554000052DA60786800F029F87B681B687A68A2
:103564001268126922F490421A617B681B687A68B7
:103574001268526922F02A025A617B681B687A68D1
:103584001268D26842F40052DA607B680022DA637F
:103594007B68202283F839207B68202283F83A2034
:1035A400002318460837BD4680BD00BFF0B585B07E
:1035B40000AF78600023FB607B681B681B69FB60BD
:1035C400FB6823F44053FB607B68DB68FA681343B1
:1035D400FB607B681B68FA681A617B681B68DB68A0
:1035E400FB60FB6823F4164323F00C03FB607B6849
:1035F4009A687B681B691A437B685B691A437B681A
:10360400DB691343FA681343FB607B681B68FA6841
:10361400DA607B681B685B69FB60FB6823F44073BA
:10362400FB607B689B69FA681343FB607B681B68DB
:10363400FA685A617B68DB69B3F5004F40F0E480B7
:103644007B681B68AB4A934204D07B681B68AA4A18
:1036540093426CD17B681C6803F04AF80246134617
:103664009B0013449A001A447B685B685B00B2FBBE
:10367400F3F3A24AA2FB03235B091D0103F038F80C
:10368400024613469B0013449A001A447B685B6805
:103694005B00B2FBF3F603F02BF8024613469B00E3
:1036A40013449A001A447B685B685B00B2FBF3F333
:1036B400924AA2FB03235B09642202FB03F3F31A7D
:1036C400DB0032338D4AA2FB03235B0903F0F803CA
:1036D4005B001D4403F00CF8024613469B001344A0
:1036E4009A001A447B685B685B00B2FBF3F602F055
:1036F400FFFF024613469B0013449A001A447B685A
:103704005B685B00B2FBF3F37C4AA2FB03235B0917
:10371400642202FB03F3F31ADB003233774AA2FB81
:1037240003235B0903F007032B44A36054E17B6884
:103734001C6802F0BBFF024613469B0013449A0028
:103744001A447B685B685B00B2FBF3F36B4AA2FB31
:1037540003235B091D0102F0A9FF024613469B00E7
:1037640013449A001A447B685B685B00B2FBF3F66F
:1037740002F09CFF024613469B0013449A001A442D
:103784007B685B685B00B2FBF3F35C4AA2FB032338
:103794005B09642202FB03F3F31ADB003233574A5A
:1037A400A2FB03235B0903F0F8035B001D4402F052
:1037B4007DFF024613469B0013449A001A447B681B
:1037C4005B685B00B2FBF3F602F070FF024613463F
:1037D4009B0013449A001A447B685B685B00B2FB4D
:1037E400F3F3464AA2FB03235B09642202FB03F3BF
:1037F400F31ADB003233414AA2FB03235B0903F0D3
:1038040007032B44A360E7E07B681B68394A9342B3
:1038140004D07B681B68384A934271D17B681C686A
:1038240002F066FF024613469B0013449A001A44B2
:103834007B685B689B00B2FBF3F3304AA2FB032373
:103844005B091D0102F054FF024613469B0013441A
:103854009A001A447B685B689B00B2FBF3F602F0A3
:1038640047FF024613469B0013449A001A447B68A0
:103874005B689B00B2FBF3F3204AA2FB03235B09C2
:10388400642202FB03F3F31A1B0132331B4AA2FB2B
:1038940003235B0903F0F0031D4402F029FF0246F1
:1038A40013469B0013449A001A447B685B689B0090
:1038B400B2FBF3F602F01CFF024613469B001344CE
:1038C4009A001A447B685B689B00B2FBF3F30B4AD3
:1038D400A2FB03235B09642202FB03F3F31A1B011B
:1038E4003233064AA2FB03235B0903F00F032B4484
:1038F400A36071E000100140001401401F85EB51EA
:103904007B681C6802F0D2FE024613469B001344F7
:103914009A001A447B685B689B00B2FBF3F3304A5D
:10392400A2FB03235B091D0102F0C0FE02461346FD
:103934009B0013449A001A447B685B689B00B2FBAB
:10394400F3F602F0B3FE024613469B0013449A00BA
:103954001A447B685B689B00B2FBF3F3204AA2FB2A
:1039640003235B09642202FB03F3F31A1B013233C2
:103974001B4AA2FB03235B0903F0F0031D4402F07E
:1039840095FE024613469B0013449A001A447B6832
:103994005B689B00B2FBF3F602F088FE0246134616
:1039A4009B0013449A001A447B685B689B00B2FB3B
:1039B400F3F30B4AA2FB03235B09642202FB03F328
:1039C400F31A1B013233064AA2FB03235B0903F0FB
:1039D4000F032B44A360FFE700BF1437BD46F0BDBF
:1039E4001F85EB5180B584B000AF78600023FB6085
:1039F4000023BB607B68002B01D10123C8E07B68F6
:103A040093F83D30DBB2002B06D17B68002283F8AB
:103A14003C207868FEF704F87B68242283F83D2074
:103A24007B681B687A681268126822F001021A60C7
:103A340002F03CFEB860BB68574AA2FB03239B0C10
:103A4400FB607B681B68FA685A607B681A687B684D
:103A54005B6852498B4202D8FB68013309E0FB687A
:103A64004FF4967101FB03F34D49A1FB03139B092A
:103A7400013313627B6819687B685B68474A934229
:103A840012D87B685B685B00BA68B2FBF3F3C3F3DC
:103A94000B03032B06D97B685B685B00BA68B2FB37
:103AA400F3F345E0042343E07B689B68002B0FD1CC
:103AB4007B685A6813465B001344BA68B2FBF3F39D
:103AC400C3F30B03002B0CBF01230023DBB210E074
:103AD4007B685A6813469B0013449A001344BA68DF
:103AE400B2FBF3F3C3F30B03002B0CBF012300233E
:103AF400DBB2002B01D001231AE07B689B68002B0A
:103B04000AD17B685A6813465B001344BA68B2FB57
:103B1400F3F343F400430BE07B685A6813469B00BD
:103B240013449A001344BA68B2FBF3F343F44043DA
:103B3400CB617B681B687A68D1697A68126A0A4328
:103B44001A607B681B687A6811697A68D2680A43CC
:103B54009A607B681B687A6851697A6892690A433B
:103B6400DA607B681B687A681268126842F00102A6
:103B74001A607B6800221A647B68202283F83D2047
:103B84007B6800221A637B68002283F83E200023AE
:103B940018461037BD4680BD83DE1B43A086010056
:103BA400D34D621084B080B582B000AF786007F165
:103BB400140080E80E00BB6A012B20D17B689B6B4C
:103BC40023F480327B689A637B68DB6823F4840384
:103BD40023F040037A68D3607B68DB6823F44012E7
:103BE4007B68DA607B6C012B05D17B68DB6843F46E
:103BF40080127B68DA60786801F08AF90CE07B68EF
:103C0400DB6843F040027B68DA60786801F080F991
:103C14007B684FF480329A633B6A012B05D17B6841
:103C24009B6843F020027B689A600023184608379B
:103C3400BD46BDE8804004B0704700BF80B483B087
:103C440000AF78607B689B6843F001027B689A60F0
:103C5400002318460C37BD465DF8047B704700BF4F
:103C640080B483B000AF78607B689B6823F0010266
:103C74007B689A60002318460C37BD465DF8047BC8
:103C8400704700BF80B582B000AF78600B46FB7010
:103C94007B68DB6823F0C0427B68DA60FB78012B29
:103CA40006D17B68DB6843F000527B68DA6008E089
:103CB400FB78002B05D17B68DB6843F080427B688E
:103CC400DA60322002F0BEFB002318460837BD46F6
:103CD40080BD00BF84B080B584B000AF786007F1C8
:103CE4001C0080E80E000023FB607B689B6B43F4A0
:103CF40000127B689A637B6C002B11D17B689B6BF1
:103D040023F400127B689A637B681B6843F04002CB
:103D14007B681A607B681B6843F080027B681A60CA
:103D24007B6803F560631A46002313607B6803F520
:103D340000631A467B6803F500631B6813603B6BE2
:103D4400012B0CD17B6A002B04D10021786800F090
:103D540041F908E00121786800F03CF903E003210F
:103D6400786800F037F91021786800F0EBF878688B
:103D740000F00EF97B6803F500631A460023136113
:103D84007B6803F500631A46002353617B6803F5DF
:103D940000631A464FF0FF3393617B6803F50063B9
:103DA4001A460023D3610023FB6031E0FB685A010B
:103DB4007B68134403F510631B68002B0ADAFB6865
:103DC4005A017B68134403F510631A464FF090437D
:103DD400136008E0FB685A017B68134403F5106321
:103DE4001A4600231360FB685A017B68134403F5E9
:103DF40010631A4600231361FB685A017B6813445D
:103E040003F510631A46FF239360FB680133FB60DC
:103E1400FA69FB689A42C9D80023FB6031E0FB6869
:103E24005A017B68134403F530631B68002B0ADADC
:103E3400FB685A017B68134403F530631A464FF05C
:103E44009043136008E0FB685A017B68134403F550
:103E540030631A4600231360FB685A017B681344DD
:103E640003F530631A4600231361FB685A017B682B
:103E7400134403F530631A46FF239360FB68013350
:103E8400FB60FA69FB689A42C9D87B6803F5006352
:103E94001A467B6803F500631B6923F4807313617E
:103EA400BB6A012B17D17B6803F500631A46234BC9
:103EB40013637B6803F500631A467B6803F50063AC
:103EC4001B6B43F4803343F0030313637B6803F5F4
:103ED40000631B6BFB607B6800229A617B686FF058
:103EE40080425A61BB6A002B05D17B689B6943F011
:103EF40010027B689A617B689A69114B13437A6854
:103F040093617B6B002B05D07B689B6943F00802AF
:103F14007B689A617B6C012B07D17B689B6943F0BA
:103F2400804343F004037A689361002318461037F2
:103F3400BD46BDE8804004B0704700BF000180006A
:103F440000383C8080B485B000AF786039600023CD
:103F5400FB603B689B0143F020027B681A61FB68AD
:103F64000133FB60FB68094A934201D9032306E04D
:103F74007B681B6903F02003002BF0D10023184653
:103F84001437BD465DF8047B704700BF400D030045
:103F940080B485B000AF78600023FB607B6810229A
:103FA4001A61FB680133FB60FB68094A934201D93B
:103FB400032306E07B681B6903F01003002BF0D198
:103FC400002318461437BD465DF8047B704700BFD4
:103FD400400D030080B483B000AF78600B46FB70E3
:103FE4007B6803F5006319467B6803F500631A6870
:103FF400FB7813430B60002318460C37BD465DF86D
:10400400047B704780B485B000AF78600023FB73F5
:104014007B6803F500639B6803F00603002B02D161
:104024000023FB731CE07B6803F500639B6803F0CB
:104034000603022B07D07B6803F500639B6803F03B
:104044000603062B02D10323FB7309E07B6803F507
:1040540000639B6803F00603042B01D10223FB7366
:10406400FB7B18461437BD465DF8047B704700BFE0
:1040740080B483B000AF786039603B685B78012B13
:104084003ED17B6803F5006319467B6803F5006342
:10409400DA693B681B781846012383409BB21343BB
:1040A400CB613B681B785A017B68134403F51063AA
:1040B4001B6803F40043002B5CD13B681B785A0156
:1040C4007B68134403F5106318463B681B785A0158
:1040D4007B68134403F510631A683B689B68C3F359
:1040E4000A033968C97889040B4339680978890552
:1040F4000B43134343F0805343F40043036039E01C
:104104007B6803F5006319467B6803F50063DA698D
:104114003B681B781846012383401B041343CB617F
:104124003B681B785A017B68134403F530631B68B2
:1041340003F40043002B1DD13B681B785A017B68B4
:10414400134403F5306318463B681B785A017B68B7
:10415400134403F530631A683B689B68C3F30A038E
:104164003968C97889040B43134343F0805343F4FB
:1041740000430360002318460C37BD465DF8047BFA
:10418400704700BF80B483B000AF786039603B688B
:104194005B78012B35D17B6803F5006319467B6896
:1041A40003F50063DA6B3B681B78184601238340F0
:1041B4009BB2DB431340CB637B6803F50063194672
:1041C4007B6803F50063DA693B681B7818460123B2
:1041D40083409BB2DB431340CB613B681B785A019D
:1041E4007B68134403F5106319463B681B785A0136
:1041F4007B68134403F510631B6823F400430B60CE
:1042040034E07B6803F5006319467B6803F50063BB
:10421400DA6B3B681B781846012383401B04DB439D
:104224001340CB637B6803F5006319467B6803F591
:104234000063DA693B681B781846012383401B043A
:10424400DB431340CB613B681B785A017B68134402
:1042540003F5306319463B681B785A017B681344A5
:1042640003F530631B6823F400430B6000231846F6
:104274000C37BD465DF8047B704700BF80B588B03D
:1042840002AFF860B9601346FB710023FB82BB6880
:104294005B78012B40F04681BB685B69002B3BD106
:1042A400BB681B785A01FB68134403F51063194675
:1042B400BB681B785A01FB68134403F510631B6940
:1042C40023F0FF5323F4C0130B61BB681B785A011E
:1042D400FB68134403F510631946BB681B785A0145
:1042E400FB68134403F510631B6943F400230B615B
:1042F400BB681B785A01FB68134403F51063194625
:10430400BB681B785A01FB68134403F510631B69EF
:10431400DB0CDB040B6186E0BB681B785A01FB688D
:10432400134403F510631946BB681B785A01FB68F4
:10433400134403F510631B69DB0CDB040B61BB68DE
:104344001B785A01FB68134403F510631946BB68D4
:104354001B785A01FB68134403F510631B6923F0AF
:10436400FF5323F4C0130B61BB681B785A01FB682D
:10437400134403F510631846BB681B785A01FB68A5
:10438400134403F510631A69BB685969BB689B68D9
:104394000B44591EBB689B68B1FBF3F3D9048C4BE7
:1043A4000B4013430361BB681B785A01FB68134439
:1043B40003F510631946BB681B785A01FB68134464
:1043C40003F510631A69BB685B69C3F312031343F3
:1043D4000B61BB68DB78012B25D1BB681B785A01C4
:1043E400FB68134403F510631946BB681B785A0134
:1043F400FB68134403F510631B6923F0C0430B618E
:10440400BB681B785A01FB68134403F51063194613
:10441400BB681B785A01FB68134403F510631B69DE
:1044240043F000530B61FB79012B0BD1BB681B7864
:104434005A01FB68134403F510631A46BB681B69F1
:10444400536116E0BB68DB78012B12D0BB685B6953
:10445400002B0ED0FB6803F500631946FB6803F5D7
:1044640000635A6BBB681B781846012383401343CF
:104474004B63BB68DB78012B2ED1FB6803F500632B
:104484009B6803F48073002B13D1BB681B785A011B
:10449400FB68134403F510631946BB681B785A0183
:1044A400FB68134403F510631B6843F000530B606F
:1044B40012E0BB681B785A01FB68134403F51063D0
:1044C4001946BB681B785A01FB68134403F5106353
:1044D4001B6843F080530B60BB681B785A01FB6870
:1044E400134403F510631946BB681B785A01FB6833
:1044F400134403F510631B6843F004430B60BB686B
:10450400DB78012B40F0F580BB68D968BB681A786A
:10451400BB685B6998B2FB7900930346F86800F0C6
:104524004DFAE6E0BB681B785A01FB68134403F5B7
:1045340030631946BB681B785A01FB68134403F5C2
:1045440030631B69DB0CDB040B61BB681B785A010D
:10455400FB68134403F530631946BB681B785A01A2
:10456400FB68134403F530631B6923F0FF5323F402
:10457400C0130B61BB685B69002B2BD1BB681B7834
:104584005A01FB68134403F530631946BB681B7872
:104594005A01FB68134403F530631A69BB689B68CE
:1045A400C3F3120313430B61BB681B785A01FB6806
:1045B400134403F530631946BB681B785A01FB6842
:1045C400134403F530631B6943F400230B613CE09F
:1045D4000000F81FBB685A69BB689B6813445A1EE5
:1045E400BB689B68B2FBF3F3FB82BB681B785A0180
:1045F400FB68134403F530631946BB681B785A0102
:10460400FB68134403F530631A69FB8ADB0418461C
:104614003A4B034013430B61BB681B785A01FB6898
:10462400134403F530631846BB681B785A01FB68D2
:10463400134403F530631A69BB689B68F98A01FB6C
:1046440003F3C3F3120313430361FB79012B0AD170
:10465400BB681B785A01FB68134403F530631A46A0
:10466400BB68DB685361BB68DB78012B2ED1FB6828
:1046740003F500639B6803F48073002B13D1BB68BC
:104684001B785A01FB68134403F530631946BB6871
:104694001B785A01FB68134403F530631B6843F02D
:1046A40000530B6012E0BB681B785A01FB6813448B
:1046B40003F530631946BB681B785A01FB68134441
:1046C40003F530631B6843F080530B60BB681B78B1
:1046D4005A01FB68134403F530631946BB681B7821
:1046E4005A01FB68134403F530631B6843F0044329
:1046F4000B60002318461837BD4680BD0000F81F24
:1047040080B485B000AFF860B9601346FB71BB6834
:104714005B78012B40F0D180BB685B69002B3BD1F7
:10472400BB681B785A01FB68134403F510631946F0
:10473400BB681B785A01FB68134403F510631B69BB
:1047440023F0FF5323F4C0130B61BB681B785A0199
:10475400FB68134403F510631946BB681B785A01C0
:10476400FB68134403F510631B6943F400230B61D6
:10477400BB681B785A01FB68134403F510631946A0
:10478400BB681B785A01FB68134403F510631B696B
:10479400DB0CDB040B615AE0BB681B785A01FB6835
:1047A400134403F510631946BB681B785A01FB6870
:1047B400134403F510631B69DB0CDB040B61BB685A
:1047C4001B785A01FB68134403F510631946BB6850
:1047D4001B785A01FB68134403F510631B6923F02B
:1047E400FF5323F4C0130B61BB685A69BB689B6811
:1047F4009A4203D9BB689A68BB685A61BB681B7844
:104804005A01FB68134403F510631946BB681B780F
:104814005A01FB68134403F510631B6943F4002336
:104824000B61BB681B785A01FB68134403F51063E2
:104834001946BB681B785A01FB68134403F51063DF
:104844001A69BB685B69C3F3120313430B61FB79F9
:10485400012B0BD1BB681B785A01FB68134403F589
:1048640010631A46BB681B69536112E0BB685B693D
:10487400002B0ED0FB6803F500631946FB6803F5B3
:1048840000635A6BBB681B781846012383401343AB
:104894004B63BB681B785A01FB68134403F5106330
:1048A4001946BB681B785A01FB68134403F510636F
:1048B4001B6843F004430B6079E0BB681B785A0122
:1048C400FB68134403F530631946BB681B785A012F
:1048D400FB68134403F530631B69DB0CDB040B61D9
:1048E400BB681B785A01FB68134403F5306319460F
:1048F400BB681B785A01FB68134403F530631B69DA
:1049040023F0FF5323F4C0130B61BB685B69002BD6
:1049140003D0BB689A68BB685A61BB681B785A01AC
:10492400FB68134403F530631946BB681B785A01CE
:10493400FB68134403F530631B6943F400230B61E4
:10494400BB681B785A01FB68134403F530631946AE
:10495400BB681B785A01FB68134403F530631A697A
:10496400BB689B68C3F3120313430B61FB79012BF0
:104974000AD1BB681B785A01FB68134403F5306302
:104984001A46BB68DB685361BB681B785A01FB6835
:10499400134403F530631946BB681B785A01FB685E
:1049A400134403F530631B6843F004430B60002396
:1049B40018461437BD465DF8047B704780B487B051
:1049C40000AFF860B96011461A460B46FB711346F6
:1049D400BB8000233B6100237B6197F82030002BD0
:1049E4001AD1BB8803339B083B6100237B610FE032
:1049F400FB791A03FB68134403F580531A46BB681A
:104A04001B6813607B6901337B61BB680433BB6043
:104A14007A693B699A42EBD3002318461C37BD469A
:104A24005DF8047B704700BF80B487B000AFF860C6
:104A3400B9601346FB8000237B61FB8803339B082A
:104A44003B6100237B610BE0FB6803F580531A682C
:104A5400BB681A607B6901337B61BB680433BB604C
:104A64007A693B699A42EFD3BB6818461C37BD4646
:104A74005DF8047B704700BF80B483B000AF7860FA
:104A840039603B685B78012B30D13B681B785A0155
:104A94007B68134403F510631B68002B12DB3B682F
:104AA4001B785A017B68134403F5106319463B686D
:104AB4001B785A017B68134403F510631B6823F0C9
:104AC40080430B603B681B785A017B68134403F5F1
:104AD400106319463B681B785A017B68134403F53D
:104AE40010631B6843F400130B602FE03B681B78D2
:104AF4005A017B68134403F530631B68002B12DBF7
:104B04003B681B785A017B68134403F530631946EC
:104B14003B681B785A017B68134403F530631B68B8
:104B240023F080430B603B681B785A017B68134475
:104B340003F5306319463B681B785A017B681344BC
:104B440003F530631B6843F400130B60002318461D
:104B54000C37BD465DF8047B704700BF80B483B05A
:104B640000AF786039603B685B78012B2ED13B68DD
:104B74001B785A017B68134403F5106319463B689C
:104B84001B785A017B68134403F510631B6823F4F4
:104B940000130B603B68DB78032B03D03B68DB78A6
:104BA400022B41D13B681B785A017B68134403F5FF
:104BB400106319463B681B785A017B68134403F55C
:104BC40010631B6843F080530B602DE03B681B7837
:104BD4005A017B68134403F5306319463B681B781C
:104BE4005A017B68134403F530631B6823F40013F4
:104BF4000B603B68DB78032B03D03B68DB78022B2C
:104C040012D13B681B785A017B68134403F5306367
:104C140019463B681B785A017B68134403F53063DB
:104C24001B6843F080530B60002318460C37BD46C5
:104C34005DF8047B704700BF80B483B000AF786038
:104C44000B46FB707B6803F500631A467B6803F52B
:104C540000631B6823F4FE6313607B6803F5006341
:104C640019467B6803F500631A68FB781B0103F49B
:104C7400FE6313430B60002318460C37BD465DF8F2
:104C8400047B704780B582B000AF78607B6803F521
:104C940000631A467B6803F500635B6823F0020334
:104CA4005360032001F0CEFB002318460837BD46AD
:104CB40080BD00BF80B582B000AF78607B6803F52B
:104CC40000631A467B6803F500635B6843F00203E4
:104CD4005360032001F0B6FB002318460837BD4695
:104CE40080BD00BF80B485B000AF78600023FB6056
:104CF4007B685B69FB607B689B69FA681340FB60B7
:104D0400FB6818461437BD465DF8047B704700BF46
:104D140080B485B000AF78607B6803F500639B695D
:104D2400FB607B6803F50063DB69FA681340FB6092
:104D3400FB681B0C18461437BD465DF8047B7047AE
:104D440080B485B000AF78607B6803F500639B692D
:104D5400FB607B6803F50063DB69FA681340FB6062
:104D6400FB689BB218461437BD465DF8047B704758
:104D740080B485B000AF78600B46FB70FB785A01B5
:104D84007B68134403F530639B68FB607B6803F521
:104D940000635B69FA681340FB60FB6818461437CC
:104DA400BD465DF8047B704780B487B000AF78607F
:104DB4000B46FB707B6803F500631B697B617B68B2
:104DC40003F500635B6B3B61FB783A6922FA03F3FA
:104DD400DB01DBB27A6913437B61FB785A017B68A0
:104DE400134403F510639A687B691340FB60FB6806
:104DF40018461C37BD465DF8047B704780B483B009
:104E040000AF78607B685B6903F0010318460C37D8
:104E1400BD465DF8047B704780B483B000AF786012
:104E24007B6803F510631A467B6803F510631B68FF
:104E340023F4FF6323F0070313607B6803F5006327
:104E44009B6803F00603042B0AD17B6803F5106307
:104E54001A467B6803F510631B6843F00303136071
:104E64007B6803F500631A467B6803F500635B689F
:104E740043F480735360002318460C37BD465DF835
:104E8400047B704780B485B000AFF8600B467A604D
:104E9400FB72FB6803F530631A4600231361FB6859
:104EA40003F530631A46FB6803F530631B6943F46A
:104EB40000231361FB6803F530631A46FB6803F5AE
:104EC40030631B6943F018031361FB6803F5306317
:104ED4001A46FB6803F530631B6943F0C043136152
:104EE400FB7A012B0CD1FB6803F530631A467B680F
:104EF4005361FB6803F530631A464FF08023136057
:104F0400002318461437BD465DF8047B704700BF84
:104F140080B485B000AF78600023FB60FB68013388
:104F2400FB60FB68134A934201D903231BE07B68AF
:104F34001B69002BF2DA0023FB607B681B6943F0DA
:104F440001027B681A61FB680133FB60FB68094A54
:104F5400934201D9032306E07B681B6903F0010334
:104F6400002BF0D1002318461437BD465DF8047BAE
:104F7400704700BF400D030080B489B000AF786073
:104F8400396000237B6100233B610023BB61002364
:104F9400FB6165E10122FB6902FA03F37B613B6873
:104FA4001A687B6913403B613A697B699A4240F015
:104FB40054813B685B68022B03D03B685B68122B0F
:104FC40023D1FB69DA087B68083253F82230BB61CD
:104FD400FB6903F007039B000F2202FA03F3DB4390
:104FE400BA691340BB613B681A69FB6903F00703A4
:104FF4009B0002FA03F3BA691343BB61FB69DA0845
:105004007B680832B96943F822107B681B68BB616E
:10501400FB695B00032202FA03F3DB43BA69134022
:10502400BB613B685B6803F00302FB695B0002FA47
:1050340003F3BA691343BB617B68BA691A603B68BE
:105044005B68012B0BD03B685B68022B07D03B6885
:105054005B68112B03D03B685B68122B30D17B68F3
:105064009B68BB61FB695B00032202FA03F3DB4329
:10507400BA691340BB613B68DA68FB695B0002FAFA
:1050840003F3BA691343BB617B68BA699A607B68AE
:105094005B68BB610122FB6902FA03F3DB43BA6973
:1050A4001340BB613B685B681B0903F00102FB69A9
:1050B40002FA03F3BA691343BB617B68BA695A60A5
:1050C4007B68DB68BB61FB695B00032202FA03F3C4
:1050D400DB43BA691340BB613B689A68FB695B00B8
:1050E40002FA03F3BA691343BB617B68BA69DA60F5
:1050F4003B685B6803F08053002B00F0AE80002314
:10510400FB605C4A5B4B5B6C43F480435364594BD8
:105114005B6C03F48043FB60FB68574AFB699B08A4
:10512400023352F82330BB61FB6903F003039B0095
:105134000F2202FA03F3DB43BA691340BB617B68B5
:105144004E4A934225D07B684D4A93421FD07B68D8
:105154004C4A934219D07B684B4A934213D07B68E4
:105164004A4A93420DD07B68494A934207D07B68F0
:10517400484A934201D106230CE007230AE00523A1
:1051840008E0042306E0032304E0022302E00123F1
:1051940000E00023FA6902F0030292009340BA6926
:1051A4001343BB613449FB699B080233BA6941F874
:1051B4002320394B1B68BB613B69DB43BA6913404D
:1051C400BB613B685B6803F48033002B03D0BA698E
:1051D4003B691343BB61304ABB6913602E4B5B6868
:1051E400BB613B69DB43BA691340BB613B685B68E5
:1051F40003F40033002B03D0BA693B691343BB614A
:10520400254ABB695360244B9B68BB613B69DB4304
:10521400BA691340BB613B685B6803F48013002BDD
:1052240003D0BA693B691343BB611B4ABB699360F2
:10523400194BDB68BB613B69DB43BA691340BB6153
:105244003B685B6803F40013002B03D0BA693B6925
:105254001343BB61104ABB69D360FB690133FB6133
:10526400FB690F2B7FF696AE00BF2437BD465DF871
:10527400047B7047003802400038014000000240BF
:105284000004024000080240000C024000100240EA
:105294000014024000180240003C014090B5C9B01F
:1052A40000AF3B1D18600023C7F814310023C7F872
:1052B40010310023C7F80C310023C7F8083100234C
:1052C400C7F804310023C7F800310023C7F8FC30C5
:1052D4000023C7F81C310023C7F818313B1D1B6895
:1052E4001B6803F00103002B13D08349824BD3F8CE
:1052F4008C3023F0C0623B1D1B689B6B1343C1F8C9
:105304008C303B1D1B689B6B002B02D10123C7F81B
:105314001C313B1D1B681B6803F00203002B13D0D8
:105324007549754BD3F88C3023F0C0523B1D1B6874
:10533400DB6B1343C1F88C303B1D1B68DB6B002B0C
:1053440002D10123C7F81C313B1D1B681B6803F005
:105354000403002B1CD06849674BD3F88C3023F42A
:1053640040123B1D1B681B6B1343C1F88C303B1D63
:105374001B681B6BB3F5801F02D10123C7F81C31D6
:105384003B1D1B681B6B002B02D10123C7F818318E
:105394003B1D1B681B6803F00803002B1CD05649F7
:1053A400554BD3F88C3023F440023B1D1B685B6BD8
:1053B4001343C1F88C303B1D1B685B6BB3F5800F46
:1053C40002D10123C7F81C313B1D1B685B6B002B0A
:1053D40002D10123C7F818313B1D1B681B6803F079
:1053E4002003002B00F09E8007F1080300221A60BE
:1053F400414A414B1B6C43F0805313643E4B1B6C7E
:1054040003F0805207F108031A6007F108031B68D0
:105414003A4A3A4B1B6843F48073136001F006F870
:10542400C7F814010AE001F001F80246D7F8143174
:10543400D31A022B02D9032300F076BC2F4B1B682E
:1054440003F48073002BEED02B4B1B6F03F44073DB
:10545400C7F81031D7F81031002B36D03B1D1B682C
:105464001B6C03F44072D7F810319A422DD0224BB2
:105474001B6F23F44073C7F81031214B01221A60CB
:105484001F4B00221A601C4AD7F8103113671A4BBD
:105494001B6F03F00103002B17D000F0C7FFC7F800
:1054A40014010CE000F0C2FF0246D7F81431D31AFD
:1054B40041F28832934202D9032300F035BC0E4BEB
:1054C4001B6F03F00203002BECD03B1D1B681B6C0D
:1054D40003F44073B3F5407F14D10749064B9B682E
:1054E40023F4F8123B1D1B681B6C23F0704323F458
:1054F400407313438B600BE000380240007000409F
:10550400400E4742554A554B9B6823F4F813936069
:105514005249524B1A6F3B1D1B681B6CC3F30B03A0
:1055240013430B673B1D1B681B6803F01003002B20
:1055340005D04B4A3B1D1B6893F8583013603B1D44
:105544001B681B6803F08003002B0BD04349434BBB
:10555400D3F8943023F440023B1D1B68DB6C1343E7
:10556400C1F894303B1D1B681B6803F04003002BFB
:105574000BD03A49394BD3F8943023F080623B1D69
:105584001B689B6C1343C1F894303B1D1B681B685C
:1055940003F48073002B14D03049304BD3F894308B
:1055A40023F000623B1D1B685B6D1343C1F894300C
:1055B4003B1D1B685B6DB3F1006F02D10123C7F87B
:1055C40018313B1D1B681B6803F40073002B0BD0C0
:1055D4002249224BD3F8943023F080523B1D1B68A0
:1055E4005B6C1343C1F894303B1D1B681B6803F4C8
:1055F4008063002B14D01949184BD3F8943023F04E
:1056040000523B1D1B681B6D1343C1F894303B1DB6
:105614001B681B6DB3F1005F02D10123C7F81C3175
:10562400D7F81C31012B06D03B1D1B681B68B3F552
:10563400006F40F052820B4B00221A6000F0F6FE1D
:10564400C7F8140110E000F0F1FE0246D7F8143157
:10565400D31A022B08D9032366E300BF00380240A3
:10566400E011474268004742D14B1B6803F00063D6
:10567400002BE8D13B1D1B681B6803F00103002BC2
:1056840004D03B1D1B689B6B002B0CD03B1D1B687F
:105694001B6803F00203002B00F081803B1D1B6894
:1056A400DB6B002B7BD1C24BD3F8843003F4403244
:1056B4004FF44033C7F8F430D7F8F43093FAA3F337
:1056C400FB66FB6EB3FA83F322FA03F301335B0048
:1056D400C7F80C31B64BD3F8843003F070624FF046
:1056E4007063C7F8F030D7F8F03093FAA3F33B6750
:1056F4003B6FB3FA83F322FA03F3C7F80831AC48DB
:105704003B1D1B685A683B1D1B68996847F6C073AC
:10571400C7F8EC30D7F8EC3093FAA3F37B677B6FD0
:10572400B3FA83F301FA03F31A43D7F80C315B0895
:10573400591E4FF44033C7F8E830D7F8E83093FAED
:10574400A3F3BB67BB6FB3FA83F301FA03F31A4302
:105754004FF07063C7F8E430D7F8E43093FAA3F35A
:10576400FB67FB6FB3FA83F3D7F8081101FA03F36D
:105774001A433B1D1B6859694FF0E043C7F8843056
:10578400D7F8843093FAA3F3C7F88030D7F8803081
:10579400B3FA83F301FA03F31343C0F884303B1DD7
:1057A4001B681B6803F00403002B05D03B1D1B681A
:1057B4001B6BB3F5801F0ED03B1D1B681B6803F0E9
:1057C4000803002B00F08E803B1D1B685B6BB3F558
:1057D400800F40F08780764BD3F8843003F4403256
:1057E4004FF44033C7F8DC30D7F8DC3093FAA3F336
:1057F4007B657B6DB3FA83F322FA03F301335B0019
:10580400C7F80C316A4BD3F8843003F0E0424FF010
:10581400E043C7F8D830D7F8D83093FAA3F3BB6580
:10582400BB6DB3FA83F322FA03F3C7F8043160487B
:105834003B1D1B685A683B1D1B68996847F6C0737B
:10584400C7F8D430D7F8D43093FAA3F3FB65FB6DD3
:10585400B3FA83F301FA03F31A43D7F80C315B0864
:10586400591E4FF44033C7F8D030D7F8D03093FAEC
:10587400A3F33B663B6EB3FA83F301FA03F31A43D3
:105884003B1D1B6819694FF07063C7F8CC30D7F81B
:10589400CC3093FAA3F37B667B6EB3FA83F301FAFD
:1058A40003F31A434FF0E043C7F8F830D7F8F83061
:1058B40093FAA3F3BB66BB6EB3FA83F3D7F8041170
:1058C40001FA03F31343C0F884303949384BD3F851
:1058D4008C3023F01F023B1D1B689B6A013B134362
:1058E400C1F88C303B1D1B681B6803F48063002BDC
:1058F40000F084803B1D1B681B6DB3F1005F7DD1FC
:105904002B4BD3F8843003F440324FF44033C7F8C0
:10591400C430D7F8C43093FAA3F3FB63FB6BB3FA38
:1059240083F322FA03F301335B00C7F80831204BF9
:10593400D3F8843003F0E0424FF0E043C7F8C030BE
:10594400D7F8C03093FAA3F33B643B6CB3FA83F308
:1059540022FA03F3C7F8043115483B1D1B685A6843
:105964003B1D1B68996847F6C073C7F8BC30D7F86D
:10597400BC3093FAA3F37B647B6CB3FA83F301FA30
:1059840003F31A433B1D1B68DB685B08591E4FF485
:105994004033C7F8B830D7F8B83093FAA3F3BB64F0
:1059A400BB6CB3FA83F301FA03F31A4302E000BFBA
:1059B400003802404FF07063C7F8B430D7F8B43001
:1059C40093FAA3F3FB64FB6CB3FA83F3D7F80811DF
:1059D40001FA03F31A434FF0E043C7F8E030D7F875
:1059E400E03093FAA3F33B653B6DB3FA83F3D7F846
:1059F400041101FA03F31343C0F884303B1D1B6800
:105A04001B6803F40063002B4FD0CA483B1D1B687E
:105A14005A683B1D1B68996847F6C073C7F8AC30D9
:105A2400D7F8AC3093FAA3F3FB62FB6AB3FA83F3BF
:105A340001FA03F31A433B1D1B68DB685B08591E1C
:105A44004FF44033C7F8A830D7F8A83093FAA3F33B
:105A54003B633B6BB3FA83F301FA03F31A433B1D35
:105A64001B6819694FF07063C7F8A430D7F8A430E5
:105A740093FAA3F37B637B6BB3FA83F301FA03F327
:105A84001A433B1D1B6859694FF0E043C7F8C830FF
:105A9400D7F8C83093FAA3F3BB63BB6BB3FA83F3B1
:105AA40001FA03F31343C0F88430A34B01221A60B4
:105AB40000F0BCFCC7F8140109E000F0B7FC024692
:105AC400D7F81431D31A022B01D903232CE1994BB3
